{
  "contractName": "DappToken",
  "abi": [
    {
      "inputs": [],
      "payable": false,
      "stateMutability": "nonpayable",
      "type": "constructor"
    },
    {
      "constant": true,
      "inputs": [],
      "name": "totalSupply",
      "outputs": [
        {
          "internalType": "uint256",
          "name": "",
          "type": "uint256"
        }
      ],
      "payable": false,
      "stateMutability": "view",
      "type": "function"
    }
  ],
  "bytecode": "0x6080604052348015600f57600080fd5b50620f42406000819055506084806100286000396000f3fe6080604052348015600f57600080fd5b506004361060285760003560e01c806318160ddd14602d575b600080fd5b60336049565b6040518082815260200191505060405180910390f35b6000548156fea265627a7a72315820746cb2d3913eaacda5a0fc3d004b10b6db93dba5ea464356f81f9a27a400d84b64736f6c63430005100032",
  "source": "pragma solidity ^0.5.16;\n\ncontract DappToken {\n  // Constructor\n  // Set the total number of tokens\n  // Read the total number of tokens\n  uint256 public totalSupply;\n\n  constructor() public {\n    totalSupply = 1000000;\n  }\n}",
  "sourcePath": "/Volumes/Study/Computer Science/Blockchain Technology/Smart Contract/SmartContract Courses/Projects/3_Code_Your_CryptoCurrency/contracts/DappToken.sol",
  "compiler": {
    "name": "solc",
    "version": "0.5.16+commit.9c3226ce.Emscripten.clang"
  },
  "schemaVersion": "3.0.23",
  "updatedAt": "2022-05-09T19:11:09.961Z",
  "networkType": "ethereum",
  "devdoc": {
    "methods": {}
  },
  "userdoc": {
    "methods": {}
  }
}